:100000000C9457010C947F010C947F010C947F0198
:100010000C947F010C947F010C947F010C944C3361
:100020000C947F010C94BF240C947F010C947F01ED
:100030000C947F010C9426180C947F010C947F0182
:100040000C94CC2B0C947F010C94F9160C9438175B
:100050000C947F010C947F010C947F010C947F0120
:100060000C949F2A0C947F01DD05E005E905E3056A
:10007000E605BF05CB05BC0533064F067E06910697
:10008000A806D206E406F8060A071E073007580736
:10009000FD0EFD0EFD0E79098809BE09C309A70EE4
:1000A000BE099D09AD077207C507E8071408E008F7
:1000B0002909110948088108D709180A560A7A0A35
:1000C000C80ACD0AF70A200B3C0BAF0BD10B930DDE
:1000D000D60D0A0E6D0E540C030D720D910F990F73
:1000E000A10FAE0FBB0FC50FD10FDC0FE70FF40F41
:1000F000FC0F04100C10151023102E103C10FA10D9
:1001000054115811721192119211A511C711B31106
:10011000E511FB110D122212A816A216A216A216A4
:10012000A216A216A216A216A216A216A216A2160F
:10013000A216A216A216A216A216A216A216A216FF
:1001400000130B1334135F135F137B13D313A51327
:10015000FF132B144114531472146514A7146F1554
:10016000E0168115AC152614C815EF150B162B16C5
:10017000A2166116A216A216A216A216A216A21600
:10018000A216A216A216A216A216A216A216A216AF
:10019000A216A2165112551271125C12A412D41298
:1001A000A216A216F41424153315A216A216A2162E
:1001B000A216A216A216A2164E15A216A216A216D4
:1001C000A216A216A216A216A216A2165A15040567
:1001D0000C0D1008110B0E030F021209130A696EA1
:1001E00076616C6964206C6364206F7072616E6408
:1001F0002000444F4E534F4B45210057656C636FB1
:100200006D6520746F002061742069703D00696E17
:1002100076616C6964206F70636F64653A200000DA
:100220005EBCE2613FDD83C29C7E20A3FD1F4100D6
:100230009D23BE46DB65F88C11AF32CA57E9743F87
:10024000065B4F666D7D077F6F777C395E79710045
:100250000000080002010000030407000000000085
:100260000000000102040810204080010204081070
:1002700020010204081020040404040404040402FD
:10028000020202020203030303030300000000232F
:10029000002600290000000000250028002B000097
:1002A000000000240027002A00026E17722A112481
:1002B0001FBECFEFD8E0DEBFCDBF11E0A0E0B1E0C0
:1002C000EAE5FEE602C005900D92AE39B107D9F716
:1002D00024E0AEE9B1E001C01D92A231B207E1F71E
:1002E00012E0CEEAD2E004C02297FE010E94C93596
:1002F000CA3AD107C9F70E94F0330C942B370C94FB
:100300000000CF92DF92EF92FF920F931F93E82F9E
:10031000F92F05C0015011092109310961F19081BE
:1003200096239417B9F305C0015011092109310929
:1003300011F1908196239413F7CFC12CD12CE12C8D
:10034000F12C0AC08FEFC81AD80AE80AF80A0C156F
:100350001D052E053F0579F080818623841791F3D2
:100360006C2D7D2D8E2D9F2D1F910F91FF90EF9065
:10037000DF90CF90089560E070E080E090E01F9102
:100380000F91FF90EF90DF90CF900895CF93DF9380
:10039000EC0188AD99AD892B11F18AAD9BAD892B0C
:1003A00031F48EE090E00E94FF339BAF8AAF6AADDC
:1003B0007BAD88AD99AD0E949C19892B81F0C2E27A
:1003C000D0E0E091A101F091A2010480F581E02D3F
:1003D00081EA91E00995892B29F0C46003C0C2E04D
:1003E000D0E0EFCFCE01DF91CF9108950F931F930F
:1003F000CF93DF9326E040E051EE60E070E081EAC9
:1004000091E00E94852FE0E0F4E6E491E11188C0DC
:100410008CE390E00E94FF33FC0111AA10AA12AAFB
:1004200013AA15AA14AA80E190E097AB86AB11AE8F
:1004300010AE13AE12AE80E2DF011D928A95E9F78D
:1004400080E090E0DF01A80FB91F91961C921E92E8
:100450009097029680319105A9F7F093A001E0935F
:100460009F01CEECD1E0FE01849161E00E946A2DF3
:100470002196F1E0CE3DDF07B1F7C0919F01D09109
:10048000A0018AA9883009F44BC008A919A901154F
:10049000110531F0D8018D919C9199AB88AB07C0C3
:1004A00080E890E00E94FF338C010097C9F182E15F
:1004B00090E00E94FF33FC0183E0808311828FEF84
:1004C0009FEF97838683918780879387828715869E
:1004D0001486918B808B3097E1F08AA991E0980F78
:1004E0009AABDE01A80FB11DA80FB11D9196FC9328
:1004F000EE939097178216821587048780E094E622
:100500009787868780818C7F80838BA98F5F8BAB59
:1005100007C088A999A9F8019183808319AB08AB1A
:10052000DF91CF911F910F9108958F929F92AF927B
:10053000BF92CF92DF92EF92FF920F931F93CF93D0
:10054000DF93C0919F01D091A001209709F452C080
:10055000CE010E94C6012CA93DA9282B392B3DAB09
:100560002CAB8AA9882309F445C07E01A12CB12CAB
:10057000C12CD12C4E0184E3880E911C8AA990E0F5
:10058000A816B906FCF4F70100A111A1F8018081B9
:1005900080FD04C0B401C8010E942C04F8018081D0
:1005A0008370823040F46AE070E0C8010E941A0F44
:1005B000FFEFCF1ADF0A8FEFA81AB80AE2E0EE0EBB
:1005C000F11CDCCFCD2891F46EA97FA980E090E0EA
:1005D000DF91CF911F910F91FF90EF90DF90CF901F
:1005E000BF90AF909F908F900C94452C80E190E04D
:1005F0009FAB8EABDF91CF911F910F91FF90EF904A
:10060000DF90CF90BF90AF909F908F900895FC01A6
:1006100082810895FC0183810895FC0184810895FD
:100620000F931F93CF93DF9380919E018F5F8A304A
:1006300018F480939E0102C010929E01CEECD1E08E
:1006400000E010E0F801E65FFE4F80818F3F61F02F
:1006500090919E01FE01981718F4849161E002C008
:10066000849160E00E94A32D0F5F1F4F21960031FF
:10067000110541F7DF91CF911F910F91089580E00F
:1006800090E02FEFFC01E65FFE4F20830196803162
:100690009105C1F780E1809381001092800021E0F4
:1006A00020933F0280E49FE19093410280934002B7
:1006B000909387008093860081E18093810080E1A0
:1006C00093E090931B0180931A0120936F0008958B
:1006D000DF92EF92FF920F931F93CF93DF93D62E6B
:1006E000823008F05CC0E82EEE0C8CE0E80E0E2D97
:1006F00010E002531E4FF801849161E00E946A2DC0
:10070000C1E0CE0DD0E0C253DE4FFE01849161E026
:100710000E946A2DF12CD1101BC0F701E65FFE4F3D
:100720008FEF8083F801849160E00E94A32DF70190
:10073000E55FFE4F8FEF8083FE01849160E0DF91E3
:10074000CF911F910F91FF90EF90DF900C94A32D0C
:10075000D7FE13C0D194E701FE01E65FFE4F8FEF95
:100760008083F801849160E00E94A32DFE01319600
:100770008D2D8B308CF08AE00FC08FEFF701E55F95
:10078000FE4F8083FE01849160E00E94A32D8D2D99
:100790008B300CF08AE0F701E65FFE4F8083DF913B
:1007A000CF911F910F91FF90EF90DF900895DC01A2
:1007B0001C96ED91FC911D97309789F0A0919F01B7
:1007C000B091A001D0962D913C91D1973183208397
:1007D000D196FC93EE93D097FC011586148608956C
:1007E0000F931F93CF93DF93EC018A01962F9F7095
:1007F000990F990F8881837C892B888361307105DB
:1008000029F078F065307105F0F00BC00E94162CCD
:10081000600F711F811D911D6A837B838C839D8373
:1008200012C0902F9295990F990F907C88818F73A9
:10083000892B8883812F8295880F880F807C06956D
:100840000695082B098388818C7F82608883DF91DD
:10085000CF911F910F9108950F931F93CF93DF9323
:10086000EC01E8812E2F269526952F7081E090E0EF
:1008700002C0880F991F2A95E2F7DB012D913C9168
:100880001197A90148235923452B09F494C0EC730F
:10089000E43031F080959095822393238D939C933F
:1008A0008881869586958F7090E08230910511F150
:1008B0008530910509F444C0019709F079C00E9480
:1008C000162C0A811B812C813D81601771078207DC
:1008D000930708F06DC0061B170BE0919F01F09184
:1008E000A00186A997A90817190708F064C017ABDB
:1008F00006AB61C0E091A101F091A2010480F581F5
:10090000E02D81EA91E00995892B09F454C00C850A
:100910001D8588859985019699878887880F991FF5
:10092000080F191FE091A101F091A2010680F78143
:10093000E02D81EA91E00995F8019183808338C028
:1009400000919F011091A001D801DA968D919C91A0
:10095000DB97892B81F0D8968D919C91D9970E9435
:100960002919D801DA96ED91FC91DB9744815581E4
:100970006681778103C04FEF5FEFBA012C853D851B
:1009800088859985019699878887FC01EE0FFF1F5E
:10099000E20FF31F518340838885998501969987DB
:1009A0008887FC01EE0FFF1FE20FF31F7183608346
:1009B00088818C7F8883DF91CF911F910F9108955B
:1009C0000F931F93CF93DF938C01FC018081836091
:1009D0008083C0919F01D091A0014AA9842F90E00B
:1009E000FE01A0E0B0E0A817B9074CF53296268DBD
:1009F000378D2017310711F01196F5CF8FEF840F47
:100A00008AABFE01E80FF11DE80FF11D80A191A155
:100A10005096AA0FBB1FAC0FBD1F8D939C9311A2C4
:100A200010A20115110531F0C8010E94D703C801B9
:100A30000E9401348CA99DA988609DAB8CABDF918D
:100A4000CF911F910F910895CF93DF93FC01808583
:100A50009185EC01C41BD50B44855585280F391FA2
:100A60002F5F3F4F31872087D901AA0FBB1FA40FEB
:100A7000B51FCD93DC938085918501969187808702
:100A800022853385DC01AA0FBB1FA40FB51F2D9350
:100A90003C93808591850196918780872681378157
:100AA000DC01AA0FBB1FA40FB51F2D933C937783C6
:100AB00066832196D387C287DF91CF9108954AE05C
:100AC00050E081EA91E00C9400311F93CF93DF93C3
:100AD000EC01162F6EE072E081EA91E00E94253071
:100AE000612F70E0CE010E945F0566E072E081EA4E
:100AF00091E00E9425306E817F8161507109CE01A5
:100B00000E945F0581EA91E00E94513068E873E13C
:100B100080E090E00E94452CCE01DF91CF911F91A3
:100B20000C94E004CF92DF92FF920F931F93CF9328
:100B3000DF93EC01F62E0C851D8528853985C901CA
:100B40000197998788876901CC0CDD1CD801AC0D11
:100B5000BD1D8D919C911197009709F456C0462FA9
:100B600050E0415051094830510508F043C04C5CF9
:100B70005F4FFA010C94C7350E94122239C02250EF
:100B800031093987288712976D917C914AE050E0AE
:100B90000E9400312DC012970D911C910115110575
:100BA00041F0B8016E5F7F4F0E94B822C8010E94D9
:100BB0007F3688859985019719C00E94BF2118C08A
:100BC0000E94BA2115C00E94552212C00E945822CC
:100BD0000FC0F6013297E00FF11FDF01129740813D
:100BE0006C910E9420228885998502979987888731
:100BF00081E00CC06EED71E081EA91E00E94253049
:100C00006F2D70E0CE010E945F0580E0DF91CF91F3
:100C10001F910F91FF90DF90CF9008956F927F9278
:100C20008F929F92AF92BF92CF92DF92EF92FF92FC
:100C30000F931F93CF93DF93CDB7DEB766970FB6B1
:100C4000F894DEBF0FBECDBF6C01862F90E0FC0193
:100C5000E556F109E233F10510F00C94FD0EE45C69
:100C6000FF4F0C94C735D6011C96ED91FC911D9752
:100C700018968D919C9119979C01215031091996D4
:100C80003C932E931897880F991FE80FF91F6081E6
:100C90007181C6010E945F0581EA91E02BC0D601F7
:100CA0001C96ED91FC911D9718968D919C9119972A
:100CB0009C012150310919963C932E931897880F67
:100CC000991FE80FF91F80819181880F991F8C016E
:100CD0000F5F1F4FD6011E96ED91FC911F97E80FF5
:100CE000F91F649181EA91E0662321F00E944A3065
:100CF000C801EDCF0E9451300C94FD0EF601048521
:100D0000158580859185019691878087880F991F29
:100D1000080F191F0E94162CD8016D937C930C9418
:100D2000FD0ED6011C96ED91FC911D9718968D91A4
:100D30009C9119979C012150310919963C932E934F
:100D40001897880F991FE80FF91F4081518123C020
:100D5000D6011C96ED91FC911D9718968D919C9152
:100D600019979C012150310919963C932E9318979D
:100D7000880F991FE80FF91F80819181893EB3E0A8
:100D80009B0724F40E947F2C0C94FF0E68EE73E006
:100D90000E947235AB0161E070E0C6010E94F00371
:100DA0000C94FF0ED6011C96ED91FC911D971896A0
:100DB0008D919C911997880F991FE80FF91FDF01FA
:100DC000129760818C91D7C2D6011C96ED91FC914F
:100DD0001D9718968D919C911997880F991FE80F70
:100DE000F91FDF01129760818C910E94A32D21C40D
:100DF000D60118968D919C911997880F991F1C9672
:100E00000D911C911D97080F191FF80180810E94F8
:100E1000D92D2AC4D6011C96ED91FC911D971896E8
:100E20008D919C911997880F991FE80FF91F608188
:100E30007181329780810E94E22CFBC3D601189603
:100E40008D919C911997880F991F1C960D911C915B
:100E50001D97080F191FF80180810E94C52C04C43A
:100E6000E091A101F091A2010480F581E02D81EAD9
:100E700091E00995F601892BB1F0048515858085EF
:100E80009185019691878087880F991F080F191FF8
:100E9000E091A101F091A2010680F781E02D81EAA5
:100EA00091E00995E1C38081807C8A608083A7C737
:100EB000F601A485B585808591859C012150310975
:100EC00031872087E091A101F091A201880F991F3D
:100ED000A80FB91F0190F081E02D6C9181EA91E09B
:100EE00009958BC7D6011C96ED91FC911D9718961C
:100EF0008D919C91199781509048880F991FE80F08
:100F0000F91F6081718132976115710539F020E018
:100F100030E0A90180810E94083103C080810E94D5
:100F20003733F60180859185880F991F0484F585F4
:100F3000E02DE80FF91F4081518161E070E0C601AA
:100F40000E94F003D60118968D919C9119970397F2
:100F500019969C938E93189752C7D6011C96ED91C3
:100F6000FC911D9718968D919C9119979C01215089
:100F7000310919963C932E931897880F991FE80F03
:100F8000F91F80810E94373338C7D6011C96ED9136
:100F9000FC911D9718968D919C911997880F991F18
:100FA000E80FF91FAF0142505109CF010497DF014B
:100FB00016972081FA014081FC0160818C910E948A
:100FC000632ED60118968D919C91199704978CC128
:100FD000D6011C96ED91FC911D9718968D919C91D0
:100FE0001997880F991FE80FF91FCF010297DF01AA
:100FF00014974081FC0160818C910E942E2ED601B5
:101000001C96ED91FC911D9718962D913C91199786
:101010002250310919963C932E931897220F331FB3
:10102000E20FF31F90E0C7C6D6011C96ED91FC912C
:101030001D9718968D919C911997880F991FE80F0D
:10104000F91FDF01129720E432E44FE050E06081A5
:101050008C910E94022ED6011C96ED91FC911D9759
:1010600018962D913C9119972150310919963C936E
:101070002E931897220F331FE20FF31F6115B0E86C
:101080007B078105910508F498C06FEF7FE795C055
:10109000D6011C96ED91FC911D9718968D919C910F
:1010A00019979C012150310919963C932E9318975A
:1010B000880F991FE80FF91F6081718100919F01CE
:1010C0001091A001F80180AD91AD7727009719F03C
:1010D0000E94E31810C081E090E06E8B7D8B0E942F
:1010E000FF337C016E897D890E94DB18D801D99677
:1010F000FC92EE92D897F80180AD91AD0E94F21863
:101100007CC600919F011091A001D801DA968D91C3
:101110009C91DB97892B39F48EE090E00E94FF339D
:10112000F80193AF82AFD801DA966D917C91DB978D
:10113000D8968D919C91D9970E949C19892B39F44E
:10114000D60111961C92119786E18C9358C6009196
:101150009F011091A001F80182AD93AD892B09F494
:1011600050C6F80180AD91AD0E942919D801DA96D8
:10117000ED91FC91DB974481558166817781F60181
:101180002485358580859185019691878087FC012E
:10119000EE0FFF1FE20FF31F51834083D601189615
:1011A0008D919C911997019619969C938E931897FF
:1011B000FC01EE0FFF1FE20FF31F718360831DC65A
:1011C000D6011C96ED91FC911D9718968D919C91DE
:1011D0001997880F991FE80FF91FA080B180DF01D0
:1011E00012974C913497E080F18085E190E04D8B2F
:1011F0000E94FF338C0195014D89B7010E94381B75
:101200000115110519F0C8010E94BB19D6011C96E1
:10121000ED91FC911D9718968D919C9119970297CD
:10122000BAC4D6011C96ED91FC911D9718968D912C
:101230009C91199781509048880F991FE80FF91FCA
:1012400080819181009709F4F4C162810E94CF1BD3
:10125000F0C1D6011C96ED91FC911D9718968D91C9
:101260009C91199785509048880F991FE80FF91F96
:10127000008111810115110589F1408551854F3F8C
:10128000510519F010F04FEF50E0668177816F3F04
:10129000710519F010F06FEF70E0848195818F3F38
:1012A000910519F010F08FEF90E022850E94C51B88
:1012B0009B01AC01F6018085918584509048880F90
:1012C000991F0484F585E02DE80FF91F6081718175
:1012D000C8010E94601BC8010E943F1AD6011896DF
:1012E0008D919C911997069719969C938E931897B8
:1012F00084C5F60180859185880F991F0485158521
:10130000080F191FD8018D919C910E941537EAC0D2
:10131000D6011C96ED91FC911D9718968D919C918C
:101320001997880F991FE80FF91FDF011297608145
:101330008D919C910E941D377CC1D6011C96ED9128
:10134000FC911D9718968D919C911997880F991F64
:10135000E80FF91F808132970190F081E02DE03194
:1013600008F067C1FF27DF01A65FBE4F8C93E253F1
:10137000FE4F849161E00E946A2D5BC180E090E0A5
:101380000E943F033AC5D6011C96ED91FC911D9732
:1013900018968D919C911997880F991FE80FF91F46
:1013A000DF01129760818C910E94680342C182E143
:1013B00090E00E94FF335C01D6011C96ED91FC91F8
:1013C0001D9718968D919C911997880F991FE80F7A
:1013D000F91FF080DF0112970C9112971C9136973C
:1013E00020818FE691E0F5019183808326878FEF3E
:1013F000878785E090E00E94FF33FC0185E591E05E
:1014000091838083F28203831483D5015196FC93E8
:10141000EE935097C5010E94BA1DD6011C96ED911E
:10142000FC911D9718968D919C9119970397A5C0D3
:10143000F60104851585808591859C01215031092F
:10144000318720879C01220F331F020F131FD80101
:10145000ED90FC90E114F10421F191878087D70190
:10146000ED91FC910280F381E02DC701099590E098
:10147000F80191838083D60118968D919C911997DC
:10148000880F991F1C96ED91FC911D97E80FF91F8D
:1014900080819181892B09F4B0C4C7010E942D215C
:1014A000ACC4F60191878087D801A5C4F6010485F4
:1014B000158520853185C901019791878087C901EC
:1014C000880F991F080F191FD8018D919C910097C3
:1014D00059F031872087DC01ED91FC910480F58182
:1014E000E02D099590E0C6C031872087F801118270
:1014F000108283C48AE190E00E94FF335C01D60130
:101500001C96ED91FC911D9718968D919C911997C1
:10151000880F991FE80FF91FDF011297E0800C91E7
:1015200022E040E16FE3C5010E947021C5010E94E5
:10153000B622C5010E94B622C5010E94BF2140E02B
:1015400063E0C5010E9420226BEF71E0C5010E949B
:10155000253041E064E0C5010E94202262EF71E085
:10156000C5010E942530D6011C96ED91FC911D9776
:1015700018968D919C911997019719969C938E932B
:101580001897880F991FE80FF91FB182A08235C400
:10159000642FC6010E94920538C481E090E00E9449
:1015A000FF338C010E94632501151105A1F0F6019E
:1015B00080859185880F991F0484F585E02DE80FBB
:1015C000F91F60817181C8010E94702560E070E0A0
:1015D000C8010E94B725D60118968D919C91199744
:1015E000880F991F1C96ED91FC911D97DAC2D601C8
:1015F0001C96ED91FC911D9718968D919C911997D1
:1016000081509048880F991FE80FF91F80819181C0
:1016100062817381653B71051CF0645B7109FACFCF
:1016200077FF03C06C547F4FFBCF009711F00E94EF
:10163000B725F60180859185029791878087DDC364
:10164000D60118968D919C911997880F991F1C9619
:101650000D911C911D97080F191FF8018081918130
:10166000009731F00E943126D8018D939C93C5C319
:101670008FEF9FEFF8019FC3D6011C96ED91FC916F
:101680001D9718962D913C911997C901815090484A
:10169000880F991FE80FF91F00811281225031092C
:1016A00019963C932E931897F89460E0812F0E942E
:1016B000A32D82E090E00E947F2C61E0812F0E94A8
:1016C000A32D8AE090E00E947F2C60E0812F0E9491
:1016D000A32D20E834E84EE150E061E0802F0E9425
:1016E000022E78940E94373428E23EE74CE05DE316
:1016F0000E94EB3420E030E040E05FE30E94EB34F6
:101700004B015C0120E03EEF4FEF56E40E94E734CE
:10171000181654F0C501B4010E940434CB01AA2765
:1017200097FDA095BA2F04C08FEF9FE7A0E0B0E02F
:10173000F60144855585208531852F5F3F4F3187E0
:101740002087220F331F420F531FFA01918380839A
:101750006AEF70E080E090E00E94452C4EC3D60115
:1017600018968D919C911997880F991F1C96ED9151
:10177000FC911D97E80FF91F60818EE090E06E8B61
:101780000E94FF338C016E890E94A827F6012085F4
:101790003185220F331F0484F585E02DE20FF31FFE
:1017A00002C2D60118968D919C911997880F991FA6
:1017B0001C96CD90DC901D97C80ED91EF601A08016
:1017C000B180A114B10419F488E19CEFF4C241E0A6
:1017D000BE01635F7F4FC5010E94CB27811104C00A
:1017E000C5010E9496270EC067E0CE010D960E94AB
:1017F00068289C89891749F066E271E081EA91E0E6
:101800000E94553021E83FEF4BC08D85803149F073
:10181000883239F068E371E081EA91E00E94483053
:10182000F1CFC5010E946226BE01635F7F4FC501F3
:101830000E946E2741E064E4C5010E940827C501AB
:101840000E946226BE01635F7F4FC5010E946E2722
:1018500040E06EEBC5010E9408278E010F5F1F4F0D
:101860007E01FAE0EF0EF11CC5010E945227D8015B
:101870008D938D01AE15BF05B9F7C5010E9496275E
:101880006A8170E0762F66278981682B882777FD2B
:101890008095982F20E130E040E050E00E94A8358C
:1018A000F60131832083A9C2D6011C968D919C91AB
:1018B0001D9718962D913C911997A90141505109F6
:1018C00019965C934E931897F901EE0FFF1FDC01F8
:1018D000AE0FBF1FED90FC9041505109D6011996F3
:1018E0005C934E9318973297E80FF91F708023503E
:1018F000310919963C932E931897329700811181E4
:101900000E30110519F423E0622E02C092E0692E18
:10191000BFE0EB16F10419F482E0B82E02C013E028
:10192000B12E61E0802F0E946A2D61E0862D0E9419
:101930006A2D60E0872D0E946A2D61E08E2D0E9445
:101940006A2D61E08B2D0E946A2D61E08E2D0E9430
:10195000A32D61E08B2D0E94A32D60E0802F0E94BB
:10196000A32D60E0862D0E94A32D20E432E44FE0F9
:1019700050E060E0872D0E94022E61E0802F0E94DF
:10198000A32D61E0862D0E94A32D20E432E44FE0D8
:1019900050E060E0872D0E94022E4B015C0160E068
:1019A000802F0E94A32D61E0862D0E94A32D20E4AC
:1019B00032E44FE050E060E0872D0E94022ED60115
:1019C0001C96ED91FC911D9718962D913C911997BD
:1019D0002F5F3F4F19963C932E931897220F331F7A
:1019E000E20FF31F382D22278901222717FD2095AA
:1019F000322FAB01662757FD6095762F040F151F18
:101A0000261F371FD0C061E08DE00E946A2D61E083
:101A10008DE00E94A32DD6011C96ED91FC911D979F
:101A200018968D919C9119979C0121503109199616
:101A30003C932E9318979C01220F331FE20FF31F44
:101A4000E080F180029719969C938E9318973297B5
:101A50000081118161E080E10E946A2D61E081E1F5
:101A60000E946A2D61E089E00E946A2D61E08AE0AF
:101A70000E946A2D61E089E00E94A32D61E08AE066
:101A80000E94A32D60E081E10E94A32DC80101976F
:101A90000A9708F0B2C184E6809F6001819FD00C54
:101AA00011242CE920035001219FB00C1124B8E12E
:101AB000AB1ABCEFBB0A00E010E0E016F1060CF434
:101AC0009CC161E080E10E94A32DC6010E947F2C91
:101AD00060E080E10E94A32DC5010E947F2C0F5F72
:101AE0001F4FEBCF61E080E10E946A2D61E081E150
:101AF0000E946A2D61E089E00E946A2D61E08AE01F
:101B00000E946A2D61E089E00E94A32D61E08AE0D5
:101B10000E94A32D60E080E10E94A32D60E081E19E
:101B20000E94A32D6AC1D6011C96ED91FC911D97D0
:101B300018968D919C9119979C0121503109199605
:101B40003C932E9318979C01220F331FE20FF31F33
:101B50004081029719969C938E93189732976081D3
:101B600086E090E04D8B6E8B0E94FF338C010E94CB
:101B70007E284D896E890115110519F0C8010E9452
:101B8000C929D6011C96ED91FC911D9718968D914F
:101B90009C911997019619969C938E931897880F8C
:101BA000991FE80FF91F1183008327C1D6011C96E6
:101BB000ED91FC911D9718968D919C9119979C0120
:101BC0002150310919963C932E9318979C01220FAE
:101BD000331FE20FF31FE080F180029719969C9368
:101BE0008E9318973297008111810115110509F420
:101BF00004C120EC40E46E2DC8010E94ED28EF28BE
:101C000009F0FBC060E0C8010E94F328C8010E94EF
:101C1000B129F3C0F6018485958520853185A90118
:101C20004150510951874087F901EE0FFF1FDC0138
:101C3000AE0FBF1F4D915C91B90162507109D60181
:101C400019967C936E9318973297DC01AE0FBF1FE5
:101C5000AD90BC9061507109D60119967C936E933A
:101C600018973297E80FF91F00811181245031092C
:101C700019963C932E9318973297E080F180E114E7
:101C8000F10409F4BAC061E0452B09F460E0C70132
:101C90000E94F32873E0972EEAE0CE2ED12CB3E019
:101CA0009B1631F00115110519F4A114B10431F09E
:101CB000C801B6010E947235482F01C04FE7692D57
:101CC000C7010E948029C801B6010E9472358B01AC
:101CD0009A94EFEF9E12E3CF90C0D6011C962D91FF
:101CE0003C911D9718968D919C911997AC0141508C
:101CF000510919965C934E931897FC01EE0FFF1F44
:101D0000D901AE0FBF1F7C9111966C9141505109C2
:101D1000D60119965C934E9318973297E20FF31FF2
:101D200030812181039719969C938E93189732974F
:101D300080819181009709F460C039832A837B8375
:101D40006C83BE016F5F7F4F0E94122956C0F6015F
:101D500004851585A085B185AA0FBB1FA00FB11FF3
:101D6000ED90FC90119786849784A12CB12CF701FB
:101D7000EA0DFB1DEE0FFF1FE80DF91D85919491F3
:101D8000882319F0FFEFAF1ABF0A9111F0CFA11409
:101D9000B10489F1C5010196880F991F0E94E735AA
:101DA000009761F4D6011896ED91FC911997EE0F0A
:101DB000FF1FE00FF11F918380831FC0FC01B182E0
:101DC000A082DC019701220F331F280D391D281B2B
:101DD000390B40E050E0FD01E20FF31F6591749173
:101DE00013967C936E9312974F5F5F4F12964A152E
:101DF0005B058CF3D7CF1D921C9281E006C080E07A
:101E000004C04FEF5FEFBA01BAC966960FB6F894F7
:101E1000DEBF0FBECDBFDF91CF911F910F91FF901D
:101E2000EF90DF90CF90BF90AF909F908F907F907A
:101E30006F9008952F923F924F925F926F927F9290
:101E40008F929F92AF92BF92CF92DF92EF92FF92CA
:101E50000F931F93CF93DF93CDB7DEB727970FB6BE
:101E6000F894DEBF0FBECDBF8C017F836E83DC0193
:101E70008C918C7F81608C931D821C82812C912C93
:101E80001B828C819D81AE81BF818A179B070CF0DC
:101E900066C7F801A684B784E680F7809701220F11
:101EA000331FF501E20FF31FA591B4916A2FF801DA
:101EB000C684D784AF3FFFEFBF0711F46FEF42C76F
:101EC000C7010196F801978386834FEF4A0F42318D
:101ED00008F0D6C16485758540855185CA01019792
:101EE000918780879A01220F331FFB01E20FF31FB6
:101EF000C080D18042505109F8015187408722505B
:101F00003109260F371FF901E080F180FD01FF271D
:101F10003197E231F10508F01BC7E259FF4F0C94ED
:101F2000C735D80119969C938E931897EC0CFD1C1D
:101F30009FC0D80119969C938E931897EC18FD08B2
:101F400097C0D80119969C938E931897EC9CC0016A
:101F5000ED9C900DFC9C900D112473C0D801199636
:101F60009C938E931897C701B6010E947235F901B0
:101F700071836083EDC6D80119969C938E93189750
:101F8000C701B6010E9472355CC0D80119969C93B6
:101F90008E93189781E090E0EC14FD040CF451C08E
:101FA00020C0D80119969C938E93189781E090E0F9
:101FB000EC14FD04B1F445C0D80119969C938E939E
:101FC000189781E090E0CE14DF04DCF50AC0D80158
:101FD00019969C938E93189781E090E0EC14FD0481
:101FE00081F580E090E02DC0D80119969C938E93E6
:101FF0001897EC20FD203CC0D80119969C938E9335
:102000001897EC28FD2834C0D80119969C938E931C
:102010001897EC24FD242CC0D80119969C938E931C
:102020001897EF2861F081E008C0D80119969C93B9
:102030008E93189781E0EF2819F4CD2809F480E0F9
:1020400090E0F9012DC4D80119969C938E931897AE
:1020500002C0F594E794CA94E2F70AC0D801199631
:102060009C938E93189702C0EE0CFF1CCA94E2F763
:10207000F901F182E0826CC640909F015090A0016E
:10208000D201D2968C91D297883009F482C6D0962C
:102090002D903C90D1972114310441F0F1018081C1
:1020A0009181D1969C938E93D09708C080E890E060
:1020B0000E94FF331C01009709F46BC682E190E097
:1020C0000E94FF333C01E3E0DC01EC9311961C928B
:1020D00011972FEF3FEF17963C932E931697199673
:1020E0003C932E9318971B963C932E931A971D960C
:1020F0001C921E921C9751963C932E9350970097DA
:1021000049F1D201D2968C91D29791E0980FD29654
:102110009C93D297F201E80FF11DE80FF11D71A217
:1021200060A2F3011782168235862486B786A686BA
:1021300080818C7F8083D3968C91D3978F5FD39649
:102140008C93808591858C0D9D1D9187808780E083
:1021500090E009C0F20180A991A9D1018D939C93CF
:1021600031AA20AA16C68C159D0534F5F3012085E9
:102170003185281B390B220F331F0484F585E02D90
:10218000E20FF31FF182E082D8011C96ED91FC91E1
:102190001D9718962D913C911997A901415051090D
:1021A00019965C934E931897220F331FE20FF31F7B
:1021B000E080F1800196D7CF2AE030E02C193D096C
:1021C000A601B701C3010E942405D8011C96ED9118
:1021D000FC911D9718968D919C91199701961996CF
:1021E0009C938E931897880F991FE80FF91F71829F
:1021F0006082AEC5E114F10409F439C0F701208012
:10220000318027013601660C771C6A0C7B1C6E1826
:102210007F0840E050E04215530584F4F201A281AA
:10222000B381E60DF71D65917491F2E04F0E511CDC
:10223000A617B707E1F44F5F5F4FEDCF4215530587
:10224000B1F4FA01EE0FFF1FEE0DFF1D6181611168
:1022500003C041E050E00DC0C40ED51ECC0CDD1C07
:10226000CA0CDB1CF60165917491672B91F340E079
:1022700050E0D80119969C938E931897F90162C289
:102280004B2F552747FD5A957EEC7A0F7C3008F08E
:10229000F5C0FD01FF27F297EC30F10508F058C5B5
:1022A000E058FF4F0C94C735480F591FD80135C06F
:1022B000D8011C96ED91FC911D9718962D913C919B
:1022C0001997B9016150710919967C936E9318970B
:1022D000220F331FE20FF31F20813181232B09F4DA
:1022E00037C519C0D8011C96ED91FC911D97189621
:1022F0002D913C911997B9016150710919967C9300
:102300006E931897220F331FE20FF31F2081318144
:10231000232B09F01DC5480F591F17965C934E9348
:10232000169716C5D8011C96ED91FC911D9718962D
:102330008D919C911997019619969C938E9318975D
:10234000880F991FE80FF91FFDC1F8012485358515
:10235000808591850196918780870284F385E02DA1
:10236000E40FF11DE4C1D8011C96ED91FC911D977D
:1023700018968D919C911997019619969C938E931E
:102380001897A0919F01B091A0015527FFC1F801B6
:10239000848595850284F385E02DE40FF11DEE0F11
:1023A000FF1FE80FF91FD80118964D915C911997FE
:1023B0009A012150310919963C932E931897DA010E
:1023C000AA0FBB1FA80FB91F79C460919F0170911C
:1023D000A001F801A485B585808591859C012150D7
:1023E000310931872087880F991FA80FB91F8D9158
:1023F0009C91552725C2F80180859185880F991FEA
:102400000484F585E02DE80FF91F8081918102C0D9
:10241000959587954A95E2F743C2D80118968D9114
:102420009C911997880F991F1C96ED91FC911D970F
:10243000E80FF91F8081918102C0880F991F4A958A
:10244000E2F72EC25527D8011C96ED91FC911D97FD
:1024500018968D919C9119979C01215031091996DC
:102460003C932E9318972AE030E0241B350B880FFD
:10247000991FE80FF91F6081718165C2A43638F099
:102480006A2FC8010E940E06811162C499C4BB273D
:10249000AB35B10508F056C4FD01E457FF4F0C946D
:1024A000C735BB81BF5FBB8353C4EB81EE2309F407
:1024B0004FC4E150EB834CC4D8011C96ED91FC91C4
:1024C0001D9718968D919C911997019619969C933A
:1024D0008E931897880F991FE80FF91F11830083B7
:1024E00037C4D8011C96ED91FC911D9718968D91DB
:1024F0009C9119979C012150310919963C932E9378
:102500001897880F991FE80FF91F80819181801714
:10251000910721F4C8010E94E00452C4E0919F0198
:10252000F091A00142A950E020E030E024173507E7
:102530000CF00EC43296668D778D6817790709F412
:1025400005C42F5F3F4FF2CFD8011C96ED91FC914F
:102550001D9718968D919C9119979C0121503109D6
:1025600019963C932E931897880F991FE80FF91F1F
:102570000190F081E02DA0919F01B091A001D29631
:102580002C91D29730E080E090E0821793070CF016
:10259000DFC312965E964D915C915F974E175F0771
:1025A00009F4E1C30196F1CFD8011C96ED91FC919D
:1025B0001D9718968D919C9119979C012150310976
:1025C00019963C932E931897880F991FE80FF91FBF
:1025D00080819181E0919F01F091A00142A950E09A
:1025E00020E030E0241735070CF0B2C33296668D38
:1025F000778D6817790709F4BDC32F5F3F4FF2CF7E
:102600002E5F3F4F2A0D3B1DF90185919491F801F2
:10261000978386839DC3F2E0EF0EF11CD8011796D5
:10262000FC92EE9216972E5F3F4F2A0D3B1DF9014B
:1026300085909490D8011C96ED91FC911D97189669
:102640008D919C9119979C012150310919963C93C9
:102650002E931897880F991FE80FF91F8081918199
:10266000892B09F475C326C0B2E0EB0EF11CF8010A
:10267000F782E6822E5F3F4F2A0D3B1DF9018590C0
:102680009490D8011C96ED91FC911D9718968D9110
:102690009C9119979C012150310919963C932E93D6
:1026A0001897880F991FE80FF91F80819181892B56
:1026B00009F04EC317969C928E92169749C3F80163
:1026C000A485B58580859185019691878087F2E004
:1026D000EF0EF11CF801F782E6822E5F3F4F2A0DC4
:1026E0003B1DF90145915491880F991FA80FB91FFF
:1026F0004D935C932DC3F2E0EF0EF11CD8011796B9
:10270000FC92EE9216972E5F3F4F2A0D3B1DF9016A
:1027100045915491F80124853585808591850196F0
:10272000918780870284F385E02DE40FF51FEE0F7B
:10273000FF1FE20FF31F40815181FC01EE0FFF1FCD
:10274000E20FF31F5183408303C3F2E0EF0EF11C4D
:10275000D8011796FC92EE9216972E5F3F4F2A0DE6
:102760003B1DF90145915491D8011C96ED91FC91C6
:102770001D9718968D919C911997019619969C9387
:102780008E931897A0919F01B091A001440F551FFF
:10279000A40FB51F2D913C91880F991FE80FF91FC9
:1027A00031832083D5C2B2E0EB0EF11CF801F78231
:1027B000E6822E5F3F4F2A0D3B1DF90185919491D2
:1027C000D8011C962D913C911D971A96ED91FC9184
:1027D0001B97E80FF91FEE0FFF1FE20FF31F18966C
:1027E0004D915C911997CA01019719969C938E930C
:1027F0001897DA01AA0FBB1FA20FB31F5FC2B2E086
:10280000EB0EF11CF801F782E6822E5F3F4F2A0D96
:102810003B1DF9014591549160919F017091A00178
:10282000F801A485B585808591859C0121503109E9
:1028300031872087880F991FA80FB91F8D919C9110
:10284000440F551F640F751FDB0146C1F8018085D9
:102850009185019774C2D80118968D919C91199712
:10286000880F991F1C96ED91FC911D97E80FF91F99
:1028700081E090E020813181232B91F080E090E095
:102880000FC0F80180859185880F991F0484F58514
:10289000E02DE80FF91F8081918191958195910933
:1028A0009183808355C2D80118968D919C91199778
:1028B000880F991F1C96ED91FC911D97E80FF91F49
:1028C0008081918180959095EBCFB2E0EB0EF11C69
:1028D000F801F782E6822E5F3F4F2A0D3B1DF9017A
:1028E00085909490D80116962D913C911797C90127
:1028F000880F991FF501E80FF91F459154912E5F3C
:102900003F4FF8013783268302968A0D9B1DFC01F9
:10291000259134916032B1F4D8011C96ED91FC916F
:102920001D9718968D919C911997BC016150710962
:1029300019967C936E931897880F991FE80FF91FCB
:1029400080809180B401C8010E94240501C2F80171
:102950008485958520853185A9014150510951878C
:102960004087A901440F551FFC01E40FF51F60814A
:102970007181F9013297D8011996FC93EE9318975B
:1029800042505109FC01E40FF51F0190F081E02D48
:102990001796FC93EE9316972350310919963C93A2
:1029A0002E931897FA013297E80FF91F2081318191
:1029B0001B963C932E931A973297208131812F5F7B
:1029C0003F4F19963C932E931897F901EE0FFF1F76
:1029D000E80FF91F7183608316968D919C9117976C
:1029E000892B09F0B5C196CDF801448555858085C0
:1029F00091859C012150310931872087FC01EE0F20
:102A0000FF1FDA01AE0FBF1F2D913C91D801179621
:102A10003C932E931697029719969C938E93189732
:102A20003297E40FF51F808191811B969C938E93C2
:102A30001A9732978081918119969C938E9318975B
:102A4000232B09F085C166CDF8018085918501961B
:102A5000918780870484F585E02D880F991FE80F02
:102A6000F91FDF012AC1D8011C96ED91FC911D9739
:102A700018968D919C9119979C01215031091996B6
:102A80003C932E931897880F991FE80FF91F8081A8
:102A9000918151969C938E9350975AC128E088E17A
:102AA00090E00FB6F894A895809360000FBE209335
:102AB0006000FFCFF80180859185880F991FA4855C
:102AC000B585A80FB91FED91FC911197EE0FFF1F6F
:102AD000EC0DFD1D859194918D939C9339C1D80186
:102AE00050968D919C91519797FD14CD17969C937C
:102AF0008E931697EFEFFFEF5196FC93EE9350975E
:102B000027C1D8011C96ED91FC911D9718968D91C7
:102B10009C9119979C012150310919963C932E9351
:102B20001897A0919F01B091A001880F991FE80FFD
:102B3000F91F21E030E0008002C0220F331F0A9409
:102B4000E2F7D4968D919C91D597822B932BD596B5
:102B50009C938E93D497FCC0D8011C96ED91FC9168
:102B60001D9718968D919C9119979C0121503109C0
:102B700019963C932E931897880F991FE80FF91F09
:102B80006081718140E050E0C8010E94F00318C1EB
:102B9000F801C484D5840084F185E02DEE0FFF1F79
:102BA000EC0DFD1DE080F1801E141F04ACF4C70184
:102BB0000196880F991F0E94E735009719F0DC01F4
:102BC000ED92FC92D8011896ED91FC911997EE0FB9
:102BD000FF1FEC0DFD1D64CE11821082B9C0D8011B
:102BE0001C96ED91FC911D9718968D919C911997CB
:102BF0009C012150310919963C932E931897880F08
:102C0000991FE80FF91F80819181009709F4A0C0F6
:102C10000E947F369DC0F801248535858085918589
:102C2000AC014150510951874087880F991FDC0141
:102C30001297A20FB31FF901E80FF91F0190F0815D
:102C4000E02DEE0FFF1F8D919C911197E80FF91F5A
:102C50008081918141CFD8011C962D913C911D9787
:102C600018968D919C911997AC0141505109199674
:102C70005C934E931897AC01440F551FF901E40F74
:102C8000F51F0190F081E02DBC0162507109199689
:102C90007C936E93189742505109420F531FEE0FC9
:102CA000FF1FDA012D913C91E20FF31F0397D8012A
:102CB00019969C938E931897DA0112978D919C9197
:102CC000EFCDF9013296EA0DFB1D459154915595D2
:102CD00047952C5F3F4F2A0D3B1DF901859194913B
:102CE000B4E0EB0EF11CF801F782E68241155105C4
:102CF000E9F0C801FA010995D8011C96ED91FC9103
:102D00001D9718962D913C9119972F5F3F4F19965B
:102D10003C932E931897220F331FE20FF31F9183DA
:102D200080838C918370813099F04AC021E030E03B
:102D3000281B390BF80180859185820F931F91879D
:102D4000808706C0C8010E9465053AC00E94E00461
:102D50002C813D812F5F3F4F3D832C8392C8BB81E7
:102D6000B11197C82DC0118282E28083E017F1076C
:102D700079F726C0FC0120812370223049F720E03A
:102D800031E03A832983BE016F5F7F4F0E942C049C
:102D9000DFCFD80118968D919C91199702961996BC
:102DA0009C938E93189716968D919C9117970197E7
:102DB00017969C938E9316978C91807C8E608C9343
:102DC00027960FB6F894DEBF0FBECDBFDF91CF912F
:102DD0001F910F91FF90EF90DF90CF90BF90AF9039
:102DE0009F908F907F906F905F904F903F902F902B
:102DF00008951F920F920FB60F9211242F938F9365
:102E00009F93EF93FF93E091B101F091B201808124
:102E1000E091B701F091B80182FD1FC090818091CF
:102E2000BA018F5F8F732091BB01821741F0E0914F
:102E3000BA01F0E0EF55FE4F958F8093BA019F3FA6
:102E400069F428E088E190E00FB6F894A8958093A3
:102E500060000FBE20936000FFCF8081FF91EF9153
:102E60009F918F912F910F900FBE0F901F901895EB
:102E70001F920F920FB60F9211242F933F934F93EF
:102E80005F936F937F938F939F93AF93BF93EF93D2
:102E9000FF9381EA91E00E94DD2EFF91EF91BF91B7
:102EA000AF919F918F917F916F915F914F913F91E2
:102EB0002F910F900FBE0F901F901895E091A101D8
:102EC000F091A2010480F581E02D81EA91E009955D
:102ED00021E0892B09F420E0822F08951092A401AB
:102EE0001092A30188EE93E0A0E0B0E08093A501EA
:102EF0009093A601A093A701B093A80185EC90E060
:102F00009093AE018093AD0184EC90E09093B0017A
:102F10008093AF0180EC90E09093B2018093B10177
:102F200081EC90E09093B4018093B30182EC90E047
:102F30009093B6018093B50186EC90E09093B80130
:102F40008093B7011092BA011092BB011092BC019C
:102F50001092BD018FE591E09093A2018093A101B1
:102F600010923E020895CF93DF93EC01E881F9813E
:102F70000190F081E02D099560E00E946A2DE881C2
:102F8000F9810280F381E02DCE01099561E00E9474
:102F90006A2DE881F9810480F581E02DCE01099543
:102FA00061E0DF91CF910C946A2DCF92DF92EF9286
:102FB000FF920F931F93CF93DF93EC01062FE881CD
:102FC000F9810280F381E02D0995D82EE881F981FD
:102FD0000190F081E02DCE010995C82EE881F9819C
:102FE0000480F581E02DCE010995E82EC8E0D0E0FF
:102FF00010E8F12C61E0812F802309F460E08D2D31
:103000000E94A32D82E390E00E947F2C61E08E2D30
:103010000E94A32D8C2D0E94D92D019709F4F12A2D
:1030200082E390E00E947F2C60E08E2D0E94A32D11
:1030300016952197F9F68F2DDF91CF911F910F9162
:10304000FF90EF90DF90CF90089508951F920F9218
:103050000FB60F9211242F933F934F935F936F936B
:103060007F938F939F93AF93BF93EF93FF93E091E1
:103070001A01F0911B010995FF91EF91BF91AF915A
:103080009F918F917F916F915F914F913F912F9180
:103090000F900FBE0F901F901895809145020E94CF
:1030A000D92D20914702309148022F5F3F4F309336
:1030B00048022093470290911103943618F095E04E
:1030C00090934602909146029330B9F018F49230F2
:1030D00039F057C0943059F1953009F44CC051C0C3
:1030E00081114FC0209147023091480224363105AA
:1030F00008F443C0109211031CC0813009F041C094
:10310000E091110391E09E0F90931103F0E0209164
:10311000470230914802EE0FFF1FE75BFD4F3183FE
:103120002083109248021092470294E021C081113E
:1031300017C0E091110391E09E0F90931103F0E00E
:103140002091470230914802EE0FFF1FE75BFD4FD1
:1031500031832083109248021092470293E008C006
:1031600020914702309148022536310550F095E014
:103170009093460206C0811104C01092480210923A
:10318000470290914602953029F0811102C02D9A94
:1031900001C02D98E0914302F0914402309751F024
:1031A000809142028F5F80934202843118F0109226
:1031B000420209940895609345020895F89410928C
:1031C0006F0078940895CF93DF931F92CDB7DEB749
:1031D00069830E94DE186981609345020F90DF9138
:1031E000CF910895F89480911A0190911B0128E1E4
:1031F0008532920731F090934402809343021092FB
:103200006F0080E1809381001092800021E0209384
:103210003F0280E991E090934102809340029093B5
:1032200087008093860081E1809381008DE498E19E
:1032300090931B0180931A0120936F00789482E091
:1032400080934602109211038091450260E00C9435
:103250006A2D82E080934602109211030895CF9365
:10326000DF93FB01C285D3858A819B818B559109B0
:10327000883B910500F580911103843029F48C81FD
:103280009D8145978D97D8F080911103843498F0F3
:103290008C819D818C978A35910568F4269623E070
:1032A00030E080E090E0DC014881598146505109CE
:1032B0004F305105D8F060E070E0CB013AC08E810C
:1032C0009F8106970F9700F7118610868FEF9FEF6B
:1032D000DC0184839583A683B78381E090E09183AA
:1032E000808361E070E080E090E023C04A815B81F0
:1032F0004F5051094032510580F4880F991FAA1F81
:10330000BB1F81602E5F3F4F24962334310561F649
:1033100020E230E031872087DCCF4A815B81445056
:1033200051094B30510538F6880F991FAA1FBB1F52
:10333000E9CFDF91CF91089529E432E0FB01338793
:1033400022872091110330E035872487209146029F
:10335000253059F40E942F19672B682B692B41F4F3
:1033600082E0809346021092110380E090E008957D
:1033700081E090E00895CF93DF93EC018E8187FD8B
:1033800007C061E00E946A2D60E08E810E94A32D3B
:1033900081E08983DF91CF910895EF92FF920F939F
:1033A0001F93CF93DF93EC017B018885998500976C
:1033B00011F00E947F369D858A85981303C083E0B3
:1033C00090E002C084E090E08E9D80018F9D100D02
:1033D0009E9D100D11241D830C83C8010E94E735AA
:1033E00099878887009741F0A80160E070E00E940B
:1033F0000E37FB82EA8204C01D821C821B821A8265
:10340000DF91CF911F910F91FF90EF900895FC01F4
:1034100021E095858285981320E0CB0136E09695D2
:1034200087953A95E1F7482F43704587CB0154E0E3
:10343000969587955A95E1F7382F33703287CB01EF
:10344000969587959695879583708387862F837049
:10345000848781E06F3F710511F008F080E0808380
:1034600080859185892B51F091E0431390E092176C
:1034700029F062817381CF010C94CD190895CF9208
:10348000DF92EF92FF920F931F93CF93DF93CDB70D
:10349000DEB729970FB6F894DEBF0FBECDBF8C0103
:1034A000DC0118968D919C911997892B09F49FC086
:1034B0000E94222CF801C684D784E088F1886C1918
:1034C0007D098E099F096C3271408105910580F359
:1034D000F894D80114968D919C9115979A838983BD
:1034E00018960D90BC91A02D7D01EFEFEE1AFE0A0B
:1034F0008C918987D8019C9152960D90BC91A02DFA
:10350000F8018489992309F42EC09C91982B9887FF
:103510009C91809589238F838F818E8388E08D8312
:1035200058856F8149853D812E8189819A81F70176
:103530005C9347FD252F3A952C93262F39F0441F95
:1035400000C000006C93000000C0F2CF38E0419151
:103550006C930000019761F7F801B38BA28B498748
:103560003D832E8338C09C91982B98879C918095A1
:1035700089238F838F818C8388E08B8358856F812B
:1035800049853B812C8189819A81F7015C9347FDB4
:10359000252F00C000C02C9300C000C000C000C098
:1035A00000C06C930000262F3A9541F0441F0000A4
:1035B00000C000C000C000C000C0E8CF38E04191AA
:1035C00000C06C9300C0019709F7F801B38BA28B80
:1035D00049873B832C839A83898378940E94222C89
:1035E000D8011E966D937D938D939C935197299648
:1035F0000FB6F894DEBF0FBECDBFDF91CF911F9104
:103600000F91FF90EF90DF90CF9008951F93CF938D
:10361000DF93EC01162F8981882331F08E8187FD9D
:1036200003C060E00E946A2D1E838981882341F0D7
:1036300061E0812F0E946A2D60E0812F0E94A32DFE
:10364000812F90E0FC01E958FD4FE491F0E0EE0F8E
:10365000FF1FEB56FD4F259134913B8B2A8BFC01CC
:10366000ED59FD4F84918C8BDF91CF911F9108957F
:10367000EF92FF920F931F93CF93DF931F92CDB7DB
:10368000DEB77C018B01FC01118217821186108646
:1036900016861786108A118AB90149830E94071A73
:1036A000B801C7010E94CD194981642FC7010F904D
:1036B000DF91CF911F910F91FF90EF900C94061B1B
:1036C000CF92DF92EF92FF920F931F93CF93DF93EE
:1036D000FC01828193816817790708F04DC0CA0107
:1036E000AA27BB27182FC32ED42EE52EFF24DC2DAE
:1036F000C22F0781002361F0809FC0011124192F80
:10370000C09E60011124DD2D209FC0011124C92F0E
:10371000F5848285A085B185F81208C0CB01880F99
:10372000991F860F971F8A0F9B1F17C0CB01880F09
:10373000991F880F991F8A0F9B1F452F55276627B2
:103740007727DC01AF0DB11D002329F0409F9001C8
:103750001124232F01C0242F2C932285DC01A20FDA
:10376000B11D1C932385DC01A20FB11DDC932485C0
:10377000FC01E20FF11DC083DF91CF911F910F91EA
:10378000FF90EF90DF90CF900895962F50E060E08B
:1037900070E0592B682B722BCB01BA010895FF9270
:1037A0000F931F93CF93DF93EC01FF24F394F60E56
:1037B0002F81F21679F1088519852150B9F06F3FF4
:1037C00059F430E040E050E06FEF7FEF80E090E0B0
:1037D0000E94A835B9010CC08F2D90E0982F882742
:1037E0000197622F70E00E945E3502C060E070E0D9
:1037F000F8018C819D81AF01401B510B481759077F
:1038000040F44081469FC001479F900D1124919341
:10381000F0CFFF82DF91CF911F910F91FF9008951C
:10382000DC01ED91FD91BD010190F081E02D40E0C2
:10383000099591E0811190E0892F0895BF92CF9270
:10384000DF92EF92FF920F931F93CF93DF93EC01E0
:10385000162FB42E79011068888999890E94B317B0
:1038600060E08E850E94A32DBA94612F8889998982
:103870000E94D5170023A9F0CC24CA94D12C01C0F2
:10388000CC0C0A95EAF7612F888999890E94D5178F
:103890008C21C094F7019081C9228C29808301E09A
:1038A00001C000E088899989202F30E00B1550F481
:1038B0006701C20ED31E612F0E94D517F6018083C7
:1038C0000F5FF0CFE20EF31E60E00E94D517F70104
:1038D000808361E08E85DF91CF911F910F91FF90E2
:1038E000EF90DF90CF90BF900C94A32DEF92FF92BA
:1038F0001F93CF93DF931F92CDB7DEB77C01162FB6
:10390000FC018089918949830E94B31760E0F70127
:1039100086850E94A32D612FF701808991890E94DD
:10392000D5174981642FF701808991890E94D517A5
:1039300061E0F70186850F90DF91CF911F91FF9095
:10394000EF900C94A32DCF92DF92EF92FF920F9302
:103950001F93CF93DF9300D0CDB7DEB76C01162F46
:10396000F42EFC018089918929833A830E94B31740
:1039700060E0F60186850E94A32D612FF601808903
:1039800091890E94D5172981E22E022F3A81132FA7
:10399000802F8E198F1548F4F80161918F01F6017F
:1039A000808991890E94D517F3CF61E0F601868561
:1039B0000F900F90DF91CF911F910F91FF90EF909B
:1039C000DF90CF900C94A32D1F93CF93DF93EC0146
:1039D000162F888999890E94B31760E08E850E940E
:1039E000A32D612F6068888999890E94D51760E0AE
:1039F000888999890E94D517182F61E08E850E94C9
:103A0000A32D812FDF91CF911F9108950F93411125
:103A10000E941E1C0F910895EF92FF921F93CF9367
:103A2000DF931F92CDB7DEB77C01162F49830E942A
:103A3000E41C4981482B612FC7010F90DF91CF9182
:103A40001F91FF90EF900C94761CEF92FF921F93C2
:103A5000CF93DF931F92CDB7DEB77C01162F49833A
:103A60000E94E41C498140954823612FC7010F90B3
:103A7000DF91CF911F91FF90EF900C94761CDF9215
:103A8000EF92FF920F931F93CF93DF93EC018B0183
:103A9000D42E790140E062E00E94761C44E06AE0A6
:103AA000CE010E94761C40E864E1CE010E94761CA3
:103AB00098014D2D62E1CE010E94A31C43E062E01B
:103AC000CE010E94761C08E813E16AE0CE010E9454
:103AD000E41C82FF13C040E062E0CE010E94761C2D
:103AE00064E4CE010E94E41CF701808362E4CE010D
:103AF0000E94E41CF701818380E004C00150110999
:103B000021F783E0DF91CF911F910F91FF90EF900C
:103B1000DF9008951F93CF93DF93EC014FE062E0B5
:103B20000E94761C13E062E370E080E090E00E9467
:103B3000452C62E0CE010E94E41C84FF02C01150BB
:103B400091F7DF91CF911F910895CF93DF93EC010F
:103B500068E20E94E41C982F9370933041F0482F44
:103B6000436068E2CE01DF91CF910C94761CDF9127
:103B7000CF910895CF93DF93EC01888999890E94B2
:103B8000B31761E08E850E946A2D61E08E850E94E8
:103B9000A32D8F858F3F09F449C060E00E946A2DF4
:103BA0008F850E94D92D892B09F040C061E08F8557
:103BB0000E946A2D61E08F850E94A32D62E370E070
:103BC00080E090E00E94452C40E064E2CE010E943B
:103BD000761C40E066E2CE010E94761C46E268E474
:103BE000CE010E94761C40E864E5CE010E94761C5E
:103BF00049EA66E5CE010E94761C43E068E5CE0105
:103C00000E94761C48EE6AE5CE010E94761C40E4D4
:103C10006AE2CE010E94761C4DE362E2CE010E9470
:103C2000761CCE01DF91CF910C94A51DCE010E9490
:103C30008A1DCACF4F925F926F927F928F929F920E
:103C4000AF92BF92CF92DF92EF92FF920F931F93AA
:103C5000CF93DF9300D000D0CDB7DEB73C01162F55
:103C6000942E502E082DA114B10419F0F5014081B5
:103C700001C040E0442EF0E10F9F400C112440E0D1
:103C800062E0C3012B833C830E94761C4FE768E00F
:103C9000C3010E94761C40E864E1C3010E94761CC7
:103CA0002B813C81452D62E1C3010E94A31C442D60
:103CB0006AE1C3010E94761C412F62E0C3010E94A9
:103CC000761C1C3029F440E86AE1C3010E940C1DF7
:103CD00090ED492E97E0592E68E0C3010E94E41C44
:103CE000982F992141F480FD04C081E0481A5108C1
:103CF00099F783E065C06CE0C3010E94E41C182FB3
:103D0000837109F05CC0E114F104F1F0C114D10435
:103D1000D9F064E1C3010E94E41C482FF6018081C0
:103D2000841708F446C04083970162E1C3010E94F2
:103D3000061D68E1C3010E94E41C8770A114B10450
:103D400021F0F501808301C080E013FD34C0E1144F
:103D5000F10499F1C114D10481F19F89992369F18A
:103D6000F6014081413019F4843019F420C042300A
:103D700010F487E025C08111FCCF42509E012F5FD7
:103D80003F4FB701C3010E943F1D811119C0F601C9
:103D90008081E80EF11CF701329790818981981398
:103DA000E8CF319690818A819813E3CF06C08FEFD8
:103DB00007C084E005C082E003C080E001C081E06C
:103DC0000F900F900F900F90DF91CF911F910F9157
:103DD000FF90EF90DF90CF90BF90AF909F908F902B
:103DE0007F906F905F904F9008958F92AF92BF92A7
:103DF000CF92DF92EF92FF920F931F93AF928C2C92
:103E0000570168017901042F9B0140E36CE00E9497
:103E10001A1E0F901F910F91FF90EF90DF90CF909F
:103E2000BF90AF908F9008952F923F924F925F92E4
:103E30006F927F928F929F92AF92BF92CF92DF92BA
:103E4000EF92FF920F931F93CF93DF93CDB7DEB71F
:103E50002D970FB6F894DEBF0FBECDBF3C012B01EE
:103E6000342E40E5431508F406C140E86CE10E9499
:103E7000251DBB24B39482E0B81691F093E0B916E7
:103E8000E1F0A1E0BA12FBC083E989833320D1F0CD
:103E900041E0F2018081853008F440E0D12C17C068
:103EA00085E98983332081F041E0D2018C9188300B
:103EB00008F440E0F3E0DF2E0AC087E98983E6E0FA
:103EC000DE2E04C0D12C02C073E0D72E40E0532D6B
:103ED000B8EFDB9E500D112457FD50E0442321F034
:103EE00088E88B8373E001C072E091E0852F8770D2
:103EF00009F490E0852F859585958595890F21F4A6
:103F0000442311F1585F20C0442311F063E001C045
:103F100064E0861708F4682F80E090E092012D0D90
:103F2000311DE72FE80FA1E0B0E0AC0FBD1FAE0FD1
:103F3000B11DFD01D901A80FB91F1196AC91A08345
:103F40000196861770F3DCCF63E0262E5032FCF02A
:103F5000B0E7BA838C819B8189279D8189279E81C7
:103F600089278F839E01285F3F4F47E0BE016F5F27
:103F70007F4FC3015D870E943F1D5D858111CAC0CF
:103F80001B862A86FE0137964F0179E01EC0952FC9
:103F900097709B87252F25952595259582E0820F83
:103FA000392FF0E18F9F300D11243A8371E0911188
:103FB00001C070E0780F88248394912C8C0E9D1E94
:103FC000880E911C87E0821B8A87CB844C2D4295FA
:103FD000407F4C0D6AE1C3015D877C870E94761C9F
:103FE000A12CCE010B967C018E01065F1F4F940120
:103FF0007C85472FBE016F5F7F4FC3010E94F51E76
:104000005D85823091F56CE1C3010E94E41C5D8501
:1040100085FD33C08F7109F480E290E0252F3327AE
:1040200027FD30952817390754F501979C01277013
:10403000332733E0959587953A95E1F78F5F91E0C7
:10404000211101C090E0980FE1E0F0E0EC0FFD1FBE
:10405000E90FF11DA1E0B0E002C0AA0FBB1F2A9535
:10406000E2F780818A2B808371CF811153C0503257
:1040700044F450E26DCF86E04DC082E04BC085E055
:1040800049C08B81883819F052E044E002C053E007
:1040900043E080E090E092012D0D311DF901E80F21
:1040A000F91F652F680FA1E0B0E0AC0FBD1FA60F90
:1040B000B11D6C9161830196841780F38A858330EA
:1040C00031F58B85811123C09E012D5F3F4F41E06B
:1040D000B401C3010E943F1D81111CC09B81F401EA
:1040E0008181981316C09C818281981312C08081AF
:1040F00082FF02C0B394BFCED2011B968C931B9754
:104100008B2D880F8B0D8F5F8C9380E003C081E037
:1041100001C087E02D960FB6F894DEBF0FBECDBF6D
:10412000DF91CF911F910F91FF90EF90DF90CF9093
:10413000BF90AF909F908F907F906F905F904F90C7
:104140003F902F9008954F925F926F927F928F923F
:104150009F92AF92CF92EF92FF920F931F93CF93C4
:10416000DF9300D0CDB7DEB73C016A832A01490155
:104170004115510529F1F9018081823008F140E8AB
:104180006CE1C3010E94251D87E08983A12CC12C0D
:10419000CE0101967C018401920141E0BE016E5F77
:1041A0007F4FC3010E94F51E81110DC0F401808173
:1041B000823041F481E09981911105C080E003C013
:1041C00084E001C081E00F900F90DF91CF911F91AB
:1041D0000F91FF90EF90CF90AF909F908F907F9036
:1041E0006F905F904F9008959A01AB0166E20C9436
:1041F000A3200F931F93CF93DF9300D01F92CDB7CF
:10420000DEB78C0182E08B8340E064E2C8010E944B
:10421000761C40E066E2C8010E94761C46E268E433
:10422000C8010E94761CAE014D5F5F4FBE016F5FFB
:104230007F4FC8010E94F420882331F091E0823042
:1042400009F090E0892F01C081E00F900F900F904E
:10425000DF91CF911F910F9108958F929F92AF920E
:10426000CF92EF92FF920F931F93CF93DF9300D0E3
:1042700000D0CDB7DEB74C0180E589831A829E015C
:104280002D5F3F4F42E0BE016F5F7F4FC4010E9430
:104290003F1D811116C0A12CC12CE12CF12C00E096
:1042A00010E020E030E044E0BE016F5F7F4FC401CA
:1042B0000E94F51E833021F0811103C081E001C00E
:1042C00080E00F900F900F900F90DF91CF911F9192
:1042D0000F91FF90EF90CF90AF909F908F900895A7
:1042E000CF92DF92EF92FF920F931F93CF93DF93C2
:1042F0001F92CDB7DEB76C01F62E142F602F4E2D16
:10430000FC011382128289E791E091838083C601C8
:10431000049629830E94FD23F601F28A178B2981D6
:10432000208F118E0F90DF91CF911F910F91FF90F1
:10433000EF90DF90CF900895FF920F931F93CF934C
:10434000DF938C01F62EEC012496FC016289CE01EC
:104350000E94A324F801818D8F29682F70E0CE017F
:104360000E94BD24CE01DF91CF911F910F91FF904C
:104370000C948424FC01118E60E00C949C2128E0B4
:10438000FC01218F60E00C949C211F93CF93DF935D
:10439000EC01162F64600E949C2181E090E00E9455
:1043A0007F2C612F6B7FCE010E949C2182E390E0E5
:1043B000DF91CF911F910C947F2C1F93CF93DF93AC
:1043C000EC01162F0E949C21612FCE01DF91CF912D
:1043D0001F910C94C521EF92FF921F93CF93DF930F
:1043E0001F92CDB7DEB77C01162F607F642B498307
:1043F0000E94DD2180E1189FB00111244981642BC6
:10440000C7010F90DF91CF911F91FF90EF900C9417
:10441000DD2141E00E94EB2181E090E0089540E041
:104420000C94EB2161E00E940F2280ED97E00C9448
:104430007F2C62E00E940F2280ED97E00C947F2C8D
:10444000CF93DF93CDB7DEB728970FB6F894DEBFD2
:104450000FBECDBF28E0EEE1F1E0DE011196019044
:104460000D922A95E1F7FC012689241710F44FEFED
:10447000420FFE013196E40FF11DE40FF11D208182
:10448000260F2068622F28960FB6F894DEBF0FBE65
:10449000CDBFDF91CF910C940F22FC016489262FB0
:1044A0002460248B6C600C940F2268E10C940F2222
:1044B0006CE10C940F22CF93DF93EC01423018F0A3
:1044C0008B8988608B8B4E8B222329F0413019F425
:1044D0008B8984608B8B62E370E080E090E00E94C7
:1044E000452C698DCE010E949C2168EE73E080E02E
:1044F00090E00E94452C60E3CE010E94DD2184E91A
:1045000091E10E947F2C60E3CE010E94DD2184E9CD
:1045100091E10E947F2C60E3CE010E94DD2186E9BB
:1045200090E00E947F2C60E2CE010E94DD216B8929
:104530006062CE010E940F2284E08C8BCE010E942B
:104540004D22CE010E94122282E08D8B66E0CE01C8
:104550000E940F22CE01DF91CF910C941922FC0111
:10456000138A20E0408D67890C945B220C94AF2263
:104570000C944830DC011C962C931C976C9311967C
:104580004C931197262F30E0F901ED59FD4FE4913E
:104590001296EC931297842F90E0FC01ED59FD4F99
:1045A000E4911396EC931397F901E958FD4F249188
:1045B00030E0220F331FF901EB56FD4F4591549126
:1045C00015965C934E93149721563D4FF901259112
:1045D000349119963C932E931897FC01E958FD4F9E
:1045E000849190E0880F991FFC01EB56FD4F2591B7
:1045F000349117963C932E93169781569D4FFC014C
:10460000859194911B969C938E931A978FEF1D968C
:104610008C930895FC018381662361F0A285B385A4
:104620009C91809589238C938485882379F0A68139
:10463000B78108C0A681B7819C91809589238C930E
:10464000A285B3858C919381892B8C93A085B185AC
:104650009C918281809589238C938485882331F075
:10466000A481B5818C919281892B8C9387EC90E009
:104670000197F1F700C00000A481B5819C9182816F
:10468000809589238C93A085B1858C919281892B0B
:104690008C9387EC90E00197F1F700C0000066234F
:1046A00069F0A681B7819C918381809589238C9341
:1046B000A285B3858C919381892B8C9387EC90E0B4
:1046C0000197F1F700C000000895CF93DF93DC015C
:1046D0001A96ED91FC911B97908113968C911397EC
:1046E0008095892380831C968C911C97882351F098
:1046F0001696ED91FC911797808113969C911397D4
:10470000892B80831896ED91FC91199790811296D0
:104710008C9112978095892380831C968C911C978D
:10472000882351F01496ED91FC9115978081129693
:104730009C911297892B808387EC90E00197F1F789
:1047400000C000001196EC911197F0E0E958FD4F80
:10475000E491F0E0EE0FFF1FE557FD4FC591D491B6
:1047600098811496ED91FC911597208112968C9169
:1047700012978095822380831896ED91FC9119976A
:10478000808112962C911297822B8083E7ECF0E0C7
:104790003197F1F700C0000013968C91982381E0C7
:1047A00009F480E0DF91CF910895FC01A285B385E3
:1047B0009C918381809589238C938485882331F013
:1047C000A681B7818C919381892B8C93A085B1852B
:1047D0009C918281809589238C938485882331F0F4
:1047E000A481B5818C919281892B8C9387EC90E088
:1047F0000197F1F700C000000895CF93DF93EC011B
:1048000020E00E94BA22CE01DF91CF910C94D523F3
:10481000FC01A285B3859C918381809589238C932B
:104820008485882331F0A681B7818C919381892B6F
:104830008C93A085B1859C918281809589238C93EE
:104840008485882331F0A481B5818C919281892B54
:104850008C9387EC90E00197F1F700C00000A681EF
:10486000B7819C918381809589238C93A285B385A0
:104870008C919381892B8C9387EC90E00197F1F7D1
:1048800000C00000A481B5819C918281809589231C
:104890008C93A085B1858C919281892B8C9387EC28
:1048A00090E00197F1F700C000000895FC01A08599
:1048B000B1859C918281809589238C9384858823FE
:1048C00031F0A481B5818C919281892B8C9387ECF6
:1048D00090E00197F1F700C00000A285B3859C919C
:1048E0008381809589238C938485882331F0A681E8
:1048F000B7818C919381892B8C9387EC90E0019701
:10490000F1F700C000000895CF93DF93EC010E94FF
:1049100056248D85DF91CF9108950F931F93CF93E8
:10492000DF93EC01062F18E0602F6078CE010E9423
:104930000A23000F1150C1F7CE01DF91CF911F91D3
:104940000F910C9465230F931F93CF93DF931F92C6
:10495000CDB7DEB78C0169830E9408246981660F98
:10496000C8010E948D24F80185870F90DF91CF91B7
:104970001F910F9108950C948D240C94BB241F92C9
:104980000F920FB60F9211242F933F934F935F9383
:104990006F937F938F939F93AF93BF93EF93FF9307
:1049A000809114038F5F80931403209114038091EE
:1049B000150390E0FC01EE0FFF1FE80FF91FEA5E00
:1049C000FC4F818128130EC08091150390E0FC01FB
:1049D000EE0FFF1FE80FF91FEA5EFC4F8281809304
:1049E000B20060C0209114038091150390E0FC0197
:1049F000EE0FFF1FE80FF91FEA5EFC4F818182175F
:104A000008F050C08091150390E0FC01EE0FFF1FED
:104A1000E80FF91FEA5EFC4F808185FF0FC080918F
:104A2000150390E0FC01EE0FFF1FE80FF91FEA5E8F
:104A3000FC4F808160E08F710E94A32D809115034F
:104A40008F5F80931503109214031092B20080912F
:104A50001503882309F1809115038930E8F48091CA
:104A6000150390E0FC01EE0FFF1FE80FF91FEA5E4F
:104A7000FC4F808185FF16C08091150390E0FC01FA
:104A8000EE0FFF1FE80FF91FEA5EFC4F808161E027
:104A90008F710E94A32D06C080911503893010F0FC
:104AA00010921503FF91EF91BF91AF919F918F915C
:104AB0007F916F915F914F913F912F910F900FBE1A
:104AC0000F901F90189520911303283030F42F5F1A
:104AD00020931303FC0120830895FC0110820895A4
:104AE0001F93CF93DF93EC01162F80911203811156
:104AF00023C0EBE1F3E09BE087E5DF0111979C9396
:104B00008083339623E0E333F207B9F78EE3809393
:104B10001703109215031092140310927000109254
:104B2000B00082E08093B1001092B20091E097BB98
:104B300090937000909312038881882399F061E02C
:104B4000812F0E946A2D288130E0F901EE0FFF1FAE
:104B5000E20FF31FEA5EFC4F1F719081907E912B54
:104B6000906290838881DF91CF911F910895AF92D9
:104B7000BF92CF92DF92EF92FF920F931F93CF934A
:104B8000DF93EC01683C7105F4F4882777FD80958C
:104B9000982F1F921F9229E02F9320E62F93E0E297
:104BA000AE2EE2E0BE2EC12CD12C14EBE12EF12C66
:104BB00000E010E020E030E0A9010E94A8330F904F
:104BC0000F900F900F9088819FEF980F983000F50D
:104BD000603292E079073CF0613699E079072CF079
:104BE00060E679E002C060E272E06850710990E02E
:104BF0009B01220F232F221F330BFC01EE0FFF1FFF
:104C0000E80FF91FEA5EFC4F2183660F609562830F
:104C1000DF91CF911F910F91FF90EF90DF90CF9098
:104C2000BF90AF900895FC0180818823B9F090E097
:104C3000FC01EE0FFF1FE80FF91FEA5EFC4F218118
:104C400032818FEF90E0831B910995958795F0E86D
:104C50002F9F800D911D11240896089580E090E00B
:104C60000895AF92BF92CF92DF92EF92FF920F938F
:104C70001F930E941326BC01882777FD8095982FEB
:104C80001F921F921F9224EB2F93A12CB12C650130
:104C900010E6E12E19E0F12E00E010E020E232E013
:104CA00040E050E00E94A8330F900F900F900F90BB
:104CB000CB011F910F91FF90EF90DF90CF90BF90AD
:104CC000AF900895FF920F931F93CF93DF93FC0152
:104CD0001081C181D281F8948A81812B8A83898154
:104CE000F12EF0948F21898378940DE7015041F1E2
:104CF00082E090E00E947F2C88818123B9F3F894B0
:104D00008A818F218A838981812B8983789480EE9F
:104D100091E00E947F2CF8948A81812B8A8389817B
:104D20008F21898386E490E00E947F2C88818123F3
:104D300001E009F000E078948AE991E00E947F2C7C
:104D4000802FDF91CF911F910F91FF9008951F93B6
:104D5000CF93DF93FC011081C181D281912F909577
:104D600060FF12C0F8948A8189238A838981812B0C
:104D700089838AE090E00E947F2C8A81812B8A833C
:104D8000789487E390E011C0F8948A8189238A831C
:104D90008981812B898381E490E00E947F2C8A8124
:104DA000812B8A83789485E090E0DF91CF911F91E9
:104DB0000C947F2C0F931F93CF93DF93FC011081F2
:104DC000C181D281F8948981812B89838A81012FC5
:104DD000009580238A8383E090E00E947F2C8A8163
:104DE000812B8A838981802389838AE090E00E94D5
:104DF0007F2CC881789485E390E00E947F2C1C234F
:104E000081E009F480E0DF91CF911F910F91089527
:104E1000CF92DF92EF92FF920F931F93CF93DF9386
:104E20001F92CDB7DEB76C01E62E08E010E0FF243C
:104E3000F39461E09F2D9E2109F460E0C60149834F
:104E40000E94A726FF0C0150110949810115110587
:104E500081F741111DC0F894D6011196ED91FC9196
:104E6000129782819C91892B82831196ED91FC91FE
:104E7000129791818C918095892381831196ED9170
:104E8000FC91129792818C918095892382837894EA
:104E90000F90DF91CF911F910F91FF90EF90DF90D6
:104EA000CF900895EF92FF920F931F93CF93DF93CC
:104EB0008C01C8E0D0E0F12CEE24E394C8010E94FC
:104EC000DA268111FE28EE0C2197C1F78F2DDF9194
:104ED000CF911F910F91FF90EF900895CF92DF92A5
:104EE000FF920F931F93CF93DF931F92CDB7DEB73F
:104EF0008C01F62E40E065E579830E940827CF2CCF
:104F00007981D72E88E0F82EF60161916F0140E09B
:104F1000C8010E940827FA94B9F70F90DF91CF914A
:104F20001F910F91FF90DF90CF900895FC011386A1
:104F30001586148627E030E0DF01A20FB31F139619
:104F40001C922115310519F021503109F5CF089532
:104F50001F93CF93DF93EC01162F62E0812F0E9405
:104F60006A2D612F70E0FB01ED59FD4FE491E8835C
:104F7000FB01E958FD4FE491F0E0EE0FFF1FE5570C
:104F8000FD4F859194919A838983CE01DF91CF91D2
:104F90001F910C949627AF92BF92CF92DF92EF921F
:104FA000FF920F931F93CF93DF931F92CDB7DEB77E
:104FB0005C01D62EE72EFC011585111163C04983D3
:104FC0000E9462264981811105C0F501138615866C
:104FD000148671C0442319F040E060EF02C040E045
:104FE0006CEEC5010E94082701E0F12CC12C11E0F4
:104FF000C5010E94DA26682FC50169830E94DA265E
:105000006981613019F48130B9F433C02F2D30E05B
:1050100068131BC0F5018385181730F4E20FF31FE6
:105020008381802349F402C0181731F060E0193001
:1050300058F4F501148708C0F501EF0DF11D8381C7
:10504000802B838361E009C0C12EF501E20FF31FBD
:105050008381902F909589238383C5010E94A72681
:105060001F5F000F11F4F39401E0F7E0FF1508F063
:10507000BFCF113438F0F501C386C11009C081E0FB
:10508000858706C0F50113861586148610E013C0C7
:10509000F50183818823B1F3ED2DFE2D80E090E0B2
:1050A000D501A80FB91F13962C9121930196883032
:1050B0009105B1F711E0812F0F90DF91CF911F91F2
:1050C0000F91FF90EF90DF90CF90BF90AF90089539
:1050D000DC0180E0615088F09D919827E92FEF7006
:1050E000F0E0E15EFD4F249192959F70E92FF0E092
:1050F000E15DFD4F84918227EDCF089508950F93D0
:105100001F93CF93DF93EC01062F18E060E08C81B2
:105110000E94A32D00FF02C061E001C060E08D810C
:105120000E94A32D059561E08C810E94A32D115052
:1051300069F760E08C810E94A32D61E08D810E945F
:10514000A32D61E08C810E94A32D60E08D810E94DF
:105150006A2D8D810E94D92D892B69F01F5F183C23
:10516000A1F761E08D810E946A2D60E08D810E942F
:10517000A32D10E0EACF61E08D81DF91CF911F91E7
:105180000F910C946A2DCF93DF93EC0161E08C8139
:105190000E94A32D61E08D810E94A32D60E08D818E
:1051A0000E94A32D60E08C81DF91CF910C94A32D00
:1051B000CF93DF93EC0160E08C810E94A32D60E02F
:1051C0008D810E94A32D61E08C810E94A32D61E05E
:1051D0008D81DF91CF910C94A32DFC01408321831D
:1051E000685762830895FC0163830895FC018381FD
:1051F000882311F090E801C090E0DB0184E0EC919D
:10520000EF3711F41C9209C0EF70FF27E7FDF0950E
:10521000E15CFD4FE491E90FEC938150119681110F
:10522000EECF0895CF92DF92EF92FF920F931F93EC
:10523000CF93DF9300D000D0CDB7DEB78C016E01E5
:1052400085E0C80ED11CFE013196DB018D91BD01B8
:105250008193EC15FD05C9F7BE016F5F7F4FC80153
:105260000E94F628C8010E94C32860E4C8010E9479
:105270007F28C8010E94D828C8010E94C328F801CD
:105280006181C8010E947F28CE0101967C01D7016F
:105290006D917D01C8010E947F28EC14FD04B9F7CF
:1052A000C8010E94D828C8010E94C328F801628161
:1052B000C8010E947F28C8010E94D8280F900F9033
:1052C0000F900F90DF91CF911F910F91FF90EF9072
:1052D000DF90CF900895FC018381882311F090E83E
:1052E00001C090E06F3711F4892F08956F70E62F99
:1052F000FF27E7FDF095E15CFD4F8491890F08954C
:105300000F931F93CF93DF93EC01162F642F0E940E
:105310006B29082FCE010E94C32864E4CE010E94AD
:105320007F28CE010E94D828CE010E94C328612F79
:10533000606CCE010E947F28602FCE010E947F28E2
:10534000CE010E94D828CE010E94C3286A81CE01D6
:105350000E947F28CE01DF91CF911F910F910C9475
:10536000D828CF93DF93EC014FE760E00E948029BB
:105370004FE761E0CE010E9480294FE762E0CE0155
:105380000E9480294FE763E0CE01DF91CF910C941A
:105390008029CF93DF93EC01862F6C834D8361E0EE
:1053A0000E946A2D61E08D810E946A2DCE01DF91FD
:1053B000CF910C94B1298091600390E0209161031A
:1053C000821B910908952091610380916003281741
:1053D00050F4E22FF0E0EE59FC4F808190E02F5F17
:1053E0002093610308958FEF9FEF0895E09161038B
:1053F00080916003E81730F4F0E0EE59FC4F8081B3
:1054000090E008958FEF9FEF08950895CF92DF9277
:10541000EF92FF920F931F93CF93DF937C01CB0109
:105420008A0120913D03222389F0EB016B01C40E18
:10543000D51ECC15DD0569F06991D701ED91FC9180
:105440000190F081E02DC7010995F3CF642F0E94F0
:10545000762AC801DF91CF911F910F91FF90EF90B5
:10546000DF90CF900895CF93DF931F92CDB7DEB733
:10547000698320913D032223D1F020913E03203205
:1054800040F021E030E0FC013383228380E090E0B3
:1054900015C080913F03E82FF0E0E05CFC4F99815C
:1054A00090838F5F80933F0380933E0305C061E04C
:1054B000CE0101960E94762A81E090E00F90DF9164
:1054C000CF910895FC011382128248EE53E060E010
:1054D00070E0448355836683778381E891E091830C
:1054E0008083089581E393E00C94622A613298F4FA
:1054F0002091EF03243089F46093A403FC0186EA31
:1055000093E0DC012A2F281B261718F421912D93F4
:10551000F9CF80E0089581E0089582E0089585ED57
:105520008093BC008091BC0084FDFCCF1092EF03FF
:10553000089585EC8093BC001092EF0308951F92AC
:105540000F920FB60F9211242F933F934F935F93B7
:105550006F937F938F939F93AF93BF93EF93FF933B
:105560008091B900887F803609F49EC078F5883232
:1055700009F45DC090F4803109F456C038F48823F2
:1055800009F4F5C0883009F44FC0F5C0883109F43A
:105590004EC0803209F45FC0EEC0803409F46AC0A6
:1055A00058F4803309F457C0883309F0E4C080937D
:1055B00082030E94992ADFC0803509F44FC08835E4
:1055C00009F45DC0883409F0D6C0D3C0883909F425
:1055D000C4C0A8F4883709F467C038F4883609F4E1
:1055E00063C0803709F460C0C6C0883809F4B5C00C
:1055F000803909F45FC0803809F0BDC05BC0803BD2
:1056000009F483C038F4803A09F466C0883A09F492
:105610007CC0B1C0803C09F4A4C0883C09F4A1C09E
:10562000883B09F487C0A7C08091EE0310C0909119
:10563000C7038091C603981770F5E091C70381E016
:105640008E0F8093C703F0E0E853FC4F8081809376
:10565000BB0085EC83C0809382038BC0E091C703BD
:1056600081E08E0F8093C7038091BB00F0E0E85388
:10567000FC4F80839091C7038091C6036BC0E0917B
:10568000C70381E08E0F8093C7038091BB00F0E0D9
:10569000E853FC4F80838091ED0381116AC081E063
:1056A0008093EC0384EA5EC083E08093EF03109262
:1056B0008303CFCF80918303803208F04EC0E09106
:1056C000830381E08E0F809383038091BB00F0E021
:1056D000EC57FC4F8083BDCF0E94992A80918303B1
:1056E000803230F4E0918303F0E0EC57FC4F1082FD
:1056F0006091830370E0E091E803F091E90384E8AE
:1057000093E009951092830336C084E08093EF0301
:105710001092A5031092A403E091EA03F091EB0329
:1057200009958091A403811105C081E08093A403B1
:105730001092A603E091A50381E08E0F8093A5034C
:10574000F0E0EA55FC4F80818093BB009091A50367
:105750008091A403981708F47CCF85E88093BC005F
:105760000AC085EC8093BC001092EF0304C0109235
:1057700082030E948F2AFF91EF91BF91AF919F9179
:105780008F917F916F915F914F913F912F910F90EA
:105790000FBE0F901F9018951F920F920FB60F9289
:1057A00011242F933F938F939F93AF93BF93809137
:1057B000F1039091F203A091F303B091F4033091BF
:1057C000F00323E0230F2D3720F40196A11DB11D16
:1057D00005C026E8230F0296A11DB11D2093F003FA
:1057E0008093F1039093F203A093F303B093F40337
:1057F0008091F5039091F603A091F703B091F8031F
:105800000196A11DB11D8093F5039093F603A0931B
:10581000F703B093F803BF91AF919F918F913F91A0
:105820002F910F900FBE0F901F9018952FB7F894DF
:105830006091F1037091F2038091F3039091F4036E
:105840002FBF08953FB7F8948091F5039091F60328
:10585000A091F703B091F80326B5A89B05C02F3F90
:1058600019F00196A11DB11D3FBF6627782F892F22
:105870009A2F620F711D811D911D42E0660F771FE7
:10588000881F991F4A95D1F708958F929F92AF92E2
:10589000BF92CF92DF92EF92FF926B017C010E9448
:1058A000222C4B015C01C114D104E104F104F1F09C
:1058B0000E9403340E94222C681979098A099B09E5
:1058C000683E73408105910570F321E0C21AD1084A
:1058D000E108F10888EE880E83E0981EA11CB11C37
:1058E000C114D104E104F10429F7DDCFFF90EF905A
:1058F000DF90CF90BF90AF909F908F9008958230AF
:10590000910538F0880F991F880F991F0597019707
:10591000F1F70895789484B5826084BD84B5816080
:1059200084BD85B5826085BD85B5816085BDEEE6A7
:10593000F0E0808181608083E1E8F0E01082808186
:1059400082608083808181608083E0E8F0E08081F4
:1059500081608083E1EBF0E0808184608083E0EB14
:10596000F0E0808181608083EAE7F0E080818460FC
:105970008083808182608083808181608083808158
:10598000806880831092C10008958E3008F08E5098
:10599000877020911C0190E4299F90011124822B93
:1059A00080937C0080917A00806480937A0080915B
:1059B0007A0086FDFCCF809178002091790090E0FC
:1059C000922B08951F93CF93DF93182FEB0161E083
:1059D0000E946A2D209711F460E004C0CF3FD105EA
:1059E00039F461E0812FDF91CF911F910C94A32DA9
:1059F000E12FF0E0E15BFD4FE491E330F9F048F492
:105A0000E130B9F0E230A1F584B5806284BDC8BD53
:105A100034C0E730E9F0E83019F1E43049F580911D
:105A20008000806280938000D0938B00C0938A00B6
:105A300024C084B5806884BDC7BD1FC0809180002C
:105A4000806880938000D0938900C093880015C03F
:105A50008091B00080688093B000C093B3000DC007
:105A60008091B00080628093B000C093B40005C004
:105A7000C038D1050CF0B5CFAFCFDF91CF911F91DA
:105A80000895833081F028F4813099F08230A1F0BC
:105A900008958730A9F08830B9F08430D1F480912E
:105AA00080008F7D03C0809180008F77809380007D
:105AB000089584B58F7702C084B58F7D84BD089525
:105AC0008091B0008F7703C08091B0008F7D80936C
:105AD000B0000895CF93DF9390E0FC01ED59FD4FA6
